{
  "_format": "hh-sol-artifact-1",
  "contractName": "BankAccount",
  "sourceName": "contracts/BankAccount.sol",
  "abi": [
    {
      "anonymous": false,
      "inputs": [
        {
          "indexed": false,
          "internalType": "address[]",
          "name": "owners",
          "type": "address[]"
        },
        {
          "indexed": true,
          "internalType": "uint256",
          "name": "accountId",
          "type": "uint256"
        },
        {
          "indexed": false,
          "internalType": "uint256",
          "name": "timestamp",
          "type": "uint256"
        }
      ],
      "name": "AccountCreated",
      "type": "event"
    },
    {
      "anonymous": false,
      "inputs": [
        {
          "indexed": true,
          "internalType": "address",
          "name": "owner",
          "type": "address"
        },
        {
          "indexed": true,
          "internalType": "uint256",
          "name": "accountId",
          "type": "uint256"
        },
        {
          "indexed": false,
          "internalType": "uint256",
          "name": "amount",
          "type": "uint256"
        },
        {
          "indexed": false,
          "internalType": "uint256",
          "name": "timestamp",
          "type": "uint256"
        }
      ],
      "name": "Deposit",
      "type": "event"
    },
    {
      "anonymous": false,
      "inputs": [
        {
          "indexed": true,
          "internalType": "address",
          "name": "user",
          "type": "address"
        },
        {
          "indexed": true,
          "internalType": "uint256",
          "name": "accountId",
          "type": "uint256"
        },
        {
          "indexed": true,
          "internalType": "uint256",
          "name": "withdrawId",
          "type": "uint256"
        },
        {
          "indexed": false,
          "internalType": "uint256",
          "name": "amount",
          "type": "uint256"
        },
        {
          "indexed": false,
          "internalType": "uint256",
          "name": "timestamp",
          "type": "uint256"
        }
      ],
      "name": "Withdraw",
      "type": "event"
    },
    {
      "anonymous": false,
      "inputs": [
        {
          "indexed": false,
          "internalType": "uint256",
          "name": "accountId",
          "type": "uint256"
        },
        {
          "indexed": false,
          "internalType": "uint256",
          "name": "withdrawId",
          "type": "uint256"
        },
        {
          "indexed": false,
          "internalType": "uint256",
          "name": "timestamp",
          "type": "uint256"
        }
      ],
      "name": "WithdrawApproved",
      "type": "event"
    },
    {
      "anonymous": false,
      "inputs": [
        {
          "indexed": true,
          "internalType": "address",
          "name": "user",
          "type": "address"
        },
        {
          "indexed": true,
          "internalType": "uint256",
          "name": "accountId",
          "type": "uint256"
        },
        {
          "indexed": true,
          "internalType": "uint256",
          "name": "withdrawId",
          "type": "uint256"
        },
        {
          "indexed": false,
          "internalType": "uint256",
          "name": "amount",
          "type": "uint256"
        },
        {
          "indexed": false,
          "internalType": "uint256",
          "name": "timestamp",
          "type": "uint256"
        }
      ],
      "name": "WithdrawRequested",
      "type": "event"
    },
    {
      "inputs": [
        {
          "internalType": "uint256",
          "name": "accountId",
          "type": "uint256"
        },
        {
          "internalType": "uint256",
          "name": "withdrawId",
          "type": "uint256"
        }
      ],
      "name": "approveRequest",
      "outputs": [],
      "stateMutability": "nonpayable",
      "type": "function"
    },
    {
      "inputs": [
        {
          "internalType": "address[]",
          "name": "otherOwners",
          "type": "address[]"
        }
      ],
      "name": "createAccount",
      "outputs": [],
      "stateMutability": "payable",
      "type": "function"
    },
    {
      "inputs": [
        {
          "internalType": "uint256",
          "name": "accountId",
          "type": "uint256"
        }
      ],
      "name": "deposit",
      "outputs": [],
      "stateMutability": "payable",
      "type": "function"
    },
    {
      "inputs": [
        {
          "internalType": "uint256",
          "name": "accountId",
          "type": "uint256"
        }
      ],
      "name": "getAccountBalance",
      "outputs": [
        {
          "internalType": "uint256",
          "name": "",
          "type": "uint256"
        }
      ],
      "stateMutability": "view",
      "type": "function"
    },
    {
      "inputs": [
        {
          "internalType": "uint256",
          "name": "accountId",
          "type": "uint256"
        }
      ],
      "name": "getAccountOwners",
      "outputs": [
        {
          "internalType": "address[]",
          "name": "",
          "type": "address[]"
        }
      ],
      "stateMutability": "view",
      "type": "function"
    },
    {
      "inputs": [],
      "name": "getUserAccounts",
      "outputs": [
        {
          "internalType": "uint256[]",
          "name": "",
          "type": "uint256[]"
        }
      ],
      "stateMutability": "view",
      "type": "function"
    },
    {
      "inputs": [
        {
          "internalType": "uint256",
          "name": "accountId",
          "type": "uint256"
        },
        {
          "internalType": "uint256",
          "name": "withdrawId",
          "type": "uint256"
        }
      ],
      "name": "getWithdrawApprovals",
      "outputs": [
        {
          "internalType": "uint256",
          "name": "",
          "type": "uint256"
        }
      ],
      "stateMutability": "view",
      "type": "function"
    },
    {
      "inputs": [
        {
          "internalType": "uint256",
          "name": "accountId",
          "type": "uint256"
        },
        {
          "internalType": "uint256",
          "name": "withdrawId",
          "type": "uint256"
        }
      ],
      "name": "isApproved",
      "outputs": [
        {
          "internalType": "bool",
          "name": "",
          "type": "bool"
        }
      ],
      "stateMutability": "view",
      "type": "function"
    },
    {
      "inputs": [
        {
          "internalType": "uint256",
          "name": "accountId",
          "type": "uint256"
        },
        {
          "internalType": "uint256",
          "name": "withdrawId",
          "type": "uint256"
        }
      ],
      "name": "withdraw",
      "outputs": [],
      "stateMutability": "nonpayable",
      "type": "function"
    },
    {
      "inputs": [
        {
          "internalType": "uint256",
          "name": "accountId",
          "type": "uint256"
        },
        {
          "internalType": "uint256",
          "name": "amount",
          "type": "uint256"
        }
      ],
      "name": "withdrawlRequest",
      "outputs": [],
      "stateMutability": "nonpayable",
      "type": "function"
    }
  ],
  "bytecode": "0x608060405234801561001057600080fd5b506126e0806100206000396000f3fe6080604052600436106100915760003560e01c8063b6b55f2511610059578063b6b55f251461018d578063bf276511146101a9578063cdf6e373146101e6578063d4c5504c1461020f578063eff634331461024c57610091565b806317500d53146100965780632c0a90a9146100d35780633d9546ee146100fc578063441a3e7014610139578063a43e567a14610162575b600080fd5b3480156100a257600080fd5b506100bd60048036038101906100b891906119a2565b610268565b6040516100ca9190611abf565b60405180910390f35b3480156100df57600080fd5b506100fa60048036038101906100f59190611ae1565b61030b565b005b34801561010857600080fd5b50610123600480360381019061011e91906119a2565b610845565b6040516101309190611b30565b60405180910390f35b34801561014557600080fd5b50610160600480360381019061015b9190611ae1565b61096c565b005b34801561016e57600080fd5b50610177610c91565b6040516101849190611c09565b60405180910390f35b6101a760048036038101906101a291906119a2565b610d26565b005b3480156101b557600080fd5b506101d060048036038101906101cb9190611ae1565b610eae565b6040516101dd9190611c46565b60405180910390f35b3480156101f257600080fd5b5061020d60048036038101906102089190611ae1565b610ff7565b005b34801561021b57600080fd5b5061023660048036038101906102319190611ae1565b611267565b6040516102439190611b30565b60405180910390f35b61026660048036038101906102619190611de6565b6113a3565b005b60606000808381526020019081526020016000206000018054806020026020016040519081016040528092919081815260200182805480156102ff57602002820191906000526020600020905b8160009054906101000a900473ffffffffffffffffffffffffffffffffffffffff1673ffffffffffffffffffffffffffffffffffffffff16815260200190600101908083116102b5575b50505050509050919050565b816000805b600080848152602001908152602001600020600001805490508110156103d0573373ffffffffffffffffffffffffffffffffffffffff16600080858152602001908152602001600020600001828154811061036e5761036d611e2f565b5b9060005260206000200160009054906101000a900473ffffffffffffffffffffffffffffffffffffffff1673ffffffffffffffffffffffffffffffffffffffff16036103bd57600191506103d0565b80806103c890611e8d565b915050610310565b5080610411576040517f08c379a000000000000000000000000000000000000000000000000000000000815260040161040890611f58565b60405180910390fd5b8383600073ffffffffffffffffffffffffffffffffffffffff16600080848152602001908152602001600020600201600083815260200190815260200160002060000160009054906101000a900473ffffffffffffffffffffffffffffffffffffffff1673ffffffffffffffffffffffffffffffffffffffff16036104cb576040517f08c379a00000000000000000000000000000000000000000000000000000000081526004016104c290611fc4565b60405180910390fd5b600080838152602001908152602001600020600201600082815260200190815260200160002060040160009054906101000a900460ff1615610542576040517f08c379a000000000000000000000000000000000000000000000000000000000815260040161053990612030565b60405180910390fd5b600080838152602001908152602001600020600201600082815260200190815260200160002060030160003373ffffffffffffffffffffffffffffffffffffffff1673ffffffffffffffffffffffffffffffffffffffff16815260200190815260200160002060009054906101000a900460ff16156105f6576040517f08c379a00000000000000000000000000000000000000000000000000000000081526004016105ed906120c2565b60405180910390fd5b3373ffffffffffffffffffffffffffffffffffffffff16600080848152602001908152602001600020600201600083815260200190815260200160002060000160009054906101000a900473ffffffffffffffffffffffffffffffffffffffff1673ffffffffffffffffffffffffffffffffffffffff16036106ad576040517f08c379a00000000000000000000000000000000000000000000000000000000081526004016106a490612154565b60405180910390fd5b600080878152602001908152602001600020600201600086815260200190815260200160002060020160008154809291906106e790611e8d565b91905055506001600080888152602001908152602001600020600201600087815260200190815260200160002060030160003373ffffffffffffffffffffffffffffffffffffffff1673ffffffffffffffffffffffffffffffffffffffff16815260200190815260200160002060006101000a81548160ff0219169083151502179055506001600080888152602001908152602001600020600001805490506107909190612174565b6000808881526020019081526020016000206002016000878152602001908152602001600020600201540361083d576001600080888152602001908152602001600020600201600087815260200190815260200160002060040160006101000a81548160ff0219169083151502179055507fe75b8275855e4657640dc636b38b6f46e07785ba9bf77cccf29667dc9bc137a4868642604051610834939291906121a8565b60405180910390a15b505050505050565b6000816000805b6000808481526020019081526020016000206000018054905081101561090c573373ffffffffffffffffffffffffffffffffffffffff1660008085815260200190815260200160002060000182815481106108aa576108a9611e2f565b5b9060005260206000200160009054906101000a900473ffffffffffffffffffffffffffffffffffffffff1673ffffffffffffffffffffffffffffffffffffffff16036108f9576001915061090c565b808061090490611e8d565b91505061084c565b508061094d576040517f08c379a000000000000000000000000000000000000000000000000000000000815260040161094490611f58565b60405180910390fd5b6000808581526020019081526020016000206001015492505050919050565b81813373ffffffffffffffffffffffffffffffffffffffff16600080848152602001908152602001600020600201600083815260200190815260200160002060000160009054906101000a900473ffffffffffffffffffffffffffffffffffffffff1673ffffffffffffffffffffffffffffffffffffffff1614610a25576040517f08c379a0000000000000000000000000000000000000000000000000000000008152600401610a1c90612251565b60405180910390fd5b600080838152602001908152602001600020600201600082815260200190815260200160002060040160009054906101000a900460ff16610a9b576040517f08c379a0000000000000000000000000000000000000000000000000000000008152600401610a92906122bd565b60405180910390fd5b6000806000868152602001908152602001600020600201600085815260200190815260200160002060010154905080600080878152602001908152602001600020600101541015610b21576040517f08c379a0000000000000000000000000000000000000000000000000000000008152600401610b1890612329565b60405180910390fd5b806000808781526020019081526020016000206001016000828254610b469190612174565b925050819055506000808681526020019081526020016000206002016000858152602001908152602001600020600080820160006101000a81549073ffffffffffffffffffffffffffffffffffffffff0219169055600182016000905560028201600090556004820160006101000a81549060ff0219169055505060003373ffffffffffffffffffffffffffffffffffffffff1682604051610be79061237a565b60006040518083038185875af1925050503d8060008114610c24576040519150601f19603f3d011682016040523d82523d6000602084013e610c29565b606091505b5050905080610c3757600080fd5b84863373ffffffffffffffffffffffffffffffffffffffff167fe08737ac48a1dab4b1a46c7dc9398bd5bfc6d7ad6fabb7cd8caa254de14def358542604051610c8192919061238f565b60405180910390a4505050505050565b6060600160003373ffffffffffffffffffffffffffffffffffffffff1673ffffffffffffffffffffffffffffffffffffffff168152602001908152602001600020805480602002602001604051908101604052809291908181526020018280548015610d1c57602002820191906000526020600020905b815481526020019060010190808311610d08575b5050505050905090565b806000805b60008084815260200190815260200160002060000180549050811015610deb573373ffffffffffffffffffffffffffffffffffffffff166000808581526020019081526020016000206000018281548110610d8957610d88611e2f565b5b9060005260206000200160009054906101000a900473ffffffffffffffffffffffffffffffffffffffff1673ffffffffffffffffffffffffffffffffffffffff1603610dd85760019150610deb565b8080610de390611e8d565b915050610d2b565b5080610e2c576040517f08c379a0000000000000000000000000000000000000000000000000000000008152600401610e2390611f58565b60405180910390fd5b346000808581526020019081526020016000206001016000828254610e5191906123b8565b92505081905550823373ffffffffffffffffffffffffffffffffffffffff167f36af321ec8d3c75236829c5317affd40ddb308863a1236d2d277a4025cccee1e3442604051610ea192919061238f565b60405180910390a3505050565b6000826000805b60008084815260200190815260200160002060000180549050811015610f75573373ffffffffffffffffffffffffffffffffffffffff166000808581526020019081526020016000206000018281548110610f1357610f12611e2f565b5b9060005260206000200160009054906101000a900473ffffffffffffffffffffffffffffffffffffffff1673ffffffffffffffffffffffffffffffffffffffff1603610f625760019150610f75565b8080610f6d90611e8d565b915050610eb5565b5080610fb6576040517f08c379a0000000000000000000000000000000000000000000000000000000008152600401610fad90611f58565b60405180910390fd5b600080868152602001908152602001600020600201600085815260200190815260200160002060040160009054906101000a900460ff169250505092915050565b816000805b600080848152602001908152602001600020600001805490508110156110bc573373ffffffffffffffffffffffffffffffffffffffff16600080858152602001908152602001600020600001828154811061105a57611059611e2f565b5b9060005260206000200160009054906101000a900473ffffffffffffffffffffffffffffffffffffffff1673ffffffffffffffffffffffffffffffffffffffff16036110a957600191506110bc565b80806110b490611e8d565b915050610ffc565b50806110fd576040517f08c379a00000000000000000000000000000000000000000000000000000000081526004016110f490611f58565b60405180910390fd5b838380600080848152602001908152602001600020600101541015611157576040517f08c379a000000000000000000000000000000000000000000000000000000000815260040161114e90612329565b60405180910390fd5b6003600081548092919061116a90611e8d565b91905055506000600354905033600080898152602001908152602001600020600201600083815260200190815260200160002060000160006101000a81548173ffffffffffffffffffffffffffffffffffffffff021916908373ffffffffffffffffffffffffffffffffffffffff1602179055508560008089815260200190815260200160002060020160008381526020019081526020016000206001018190555080873373ffffffffffffffffffffffffffffffffffffffff167f1f0d204a59639d21245dbaa239dfc9a6227aa86cb614bdda19843c52d155fcfa894260405161125692919061238f565b60405180910390a450505050505050565b6000826000805b6000808481526020019081526020016000206000018054905081101561132e573373ffffffffffffffffffffffffffffffffffffffff1660008085815260200190815260200160002060000182815481106112cc576112cb611e2f565b5b9060005260206000200160009054906101000a900473ffffffffffffffffffffffffffffffffffffffff1673ffffffffffffffffffffffffffffffffffffffff160361131b576001915061132e565b808061132690611e8d565b91505061126e565b508061136f576040517f08c379a000000000000000000000000000000000000000000000000000000000815260040161136690611f58565b60405180910390fd5b6000808681526020019081526020016000206002016000858152602001908152602001600020600201549250505092915050565b806003815111156113e9576040517f08c379a00000000000000000000000000000000000000000000000000000000081526004016113e09061245e565b60405180910390fd5b60018151101561142e576040517f08c379a0000000000000000000000000000000000000000000000000000000008152600401611425906124f0565b60405180910390fd5b60005b81518110156115a6573373ffffffffffffffffffffffffffffffffffffffff1682828151811061146457611463611e2f565b5b602002602001015173ffffffffffffffffffffffffffffffffffffffff16036114c2576040517f08c379a00000000000000000000000000000000000000000000000000000000081526004016114b99061255c565b60405180910390fd5b60006001826114d191906123b8565b90505b8251811015611592578281815181106114f0576114ef611e2f565b5b602002602001015173ffffffffffffffffffffffffffffffffffffffff1683838151811061152157611520611e2f565b5b602002602001015173ffffffffffffffffffffffffffffffffffffffff160361157f576040517f08c379a0000000000000000000000000000000000000000000000000000000008152600401611576906125c8565b60405180910390fd5b808061158a90611e8d565b9150506114d4565b50808061159e90611e8d565b915050611431565b506000600183516115b791906123b8565b67ffffffffffffffff8111156115d0576115cf611c77565b5b6040519080825280602002602001820160405280156115fe5781602001602082028036833780820191505090505b5090506002600081548092919061161490611e8d565b919050555060006002549050338285518151811061163557611634611e2f565b5b602002602001019073ffffffffffffffffffffffffffffffffffffffff16908173ffffffffffffffffffffffffffffffffffffffff168152505060005b825181101561182c57600183516116899190612174565b8110156116f9578481815181106116a3576116a2611e2f565b5b60200260200101518382815181106116be576116bd611e2f565b5b602002602001019073ffffffffffffffffffffffffffffffffffffffff16908173ffffffffffffffffffffffffffffffffffffffff16815250505b60026001600085848151811061171257611711611e2f565b5b602002602001015173ffffffffffffffffffffffffffffffffffffffff1673ffffffffffffffffffffffffffffffffffffffff168152602001908152602001600020805490501115611799576040517f08c379a00000000000000000000000000000000000000000000000000000000081526004016117909061265a565b60405180910390fd5b600160008483815181106117b0576117af611e2f565b5b602002602001015173ffffffffffffffffffffffffffffffffffffffff1673ffffffffffffffffffffffffffffffffffffffff168152602001908152602001600020829080600181540180825580915050600190039060005260206000200160009091909190915055808061182490611e8d565b915050611672565b508160008083815260200190815260200160002060000190805190602001906118569291906118b1565b503460008083815260200190815260200160002060010181905550807f1dfea57c7217d8ee2ef44253419f3a05acdf0e6dea69f12e9e2afa2e748e3c8c83426040516118a392919061267a565b60405180910390a250505050565b82805482825590600052602060002090810192821561192a579160200282015b828111156119295782518260006101000a81548173ffffffffffffffffffffffffffffffffffffffff021916908373ffffffffffffffffffffffffffffffffffffffff160217905550916020019190600101906118d1565b5b509050611937919061193b565b5090565b5b8082111561195457600081600090555060010161193c565b5090565b6000604051905090565b600080fd5b600080fd5b6000819050919050565b61197f8161196c565b811461198a57600080fd5b50565b60008135905061199c81611976565b92915050565b6000602082840312156119b8576119b7611962565b5b60006119c68482850161198d565b91505092915050565b600081519050919050565b600082825260208201905092915050565b6000819050602082019050919050565b600073ffffffffffffffffffffffffffffffffffffffff82169050919050565b6000611a26826119fb565b9050919050565b611a3681611a1b565b82525050565b6000611a488383611a2d565b60208301905092915050565b6000602082019050919050565b6000611a6c826119cf565b611a7681856119da565b9350611a81836119eb565b8060005b83811015611ab2578151611a998882611a3c565b9750611aa483611a54565b925050600181019050611a85565b5085935050505092915050565b60006020820190508181036000830152611ad98184611a61565b905092915050565b60008060408385031215611af857611af7611962565b5b6000611b068582860161198d565b9250506020611b178582860161198d565b9150509250929050565b611b2a8161196c565b82525050565b6000602082019050611b456000830184611b21565b92915050565b600081519050919050565b600082825260208201905092915050565b6000819050602082019050919050565b611b808161196c565b82525050565b6000611b928383611b77565b60208301905092915050565b6000602082019050919050565b6000611bb682611b4b565b611bc08185611b56565b9350611bcb83611b67565b8060005b83811015611bfc578151611be38882611b86565b9750611bee83611b9e565b925050600181019050611bcf565b5085935050505092915050565b60006020820190508181036000830152611c238184611bab565b905092915050565b60008115159050919050565b611c4081611c2b565b82525050565b6000602082019050611c5b6000830184611c37565b92915050565b600080fd5b6000601f19601f8301169050919050565b7f4e487b7100000000000000000000000000000000000000000000000000000000600052604160045260246000fd5b611caf82611c66565b810181811067ffffffffffffffff82111715611cce57611ccd611c77565b5b80604052505050565b6000611ce1611958565b9050611ced8282611ca6565b919050565b600067ffffffffffffffff821115611d0d57611d0c611c77565b5b602082029050602081019050919050565b600080fd5b611d2c81611a1b565b8114611d3757600080fd5b50565b600081359050611d4981611d23565b92915050565b6000611d62611d5d84611cf2565b611cd7565b90508083825260208201905060208402830185811115611d8557611d84611d1e565b5b835b81811015611dae5780611d9a8882611d3a565b845260208401935050602081019050611d87565b5050509392505050565b600082601f830112611dcd57611dcc611c61565b5b8135611ddd848260208601611d4f565b91505092915050565b600060208284031215611dfc57611dfb611962565b5b600082013567ffffffffffffffff811115611e1a57611e19611967565b5b611e2684828501611db8565b91505092915050565b7f4e487b7100000000000000000000000000000000000000000000000000000000600052603260045260246000fd5b7f4e487b7100000000000000000000000000000000000000000000000000000000600052601160045260246000fd5b6000611e988261196c565b91507fffffffffffffffffffffffffffffffffffffffffffffffffffffffffffffffff8203611eca57611ec9611e5e565b5b600182019050919050565b600082825260208201905092915050565b7f796f7520617265206e6f7420616e206f776e6572206f6620746869732061636360008201527f6f756e7400000000000000000000000000000000000000000000000000000000602082015250565b6000611f42602483611ed5565b9150611f4d82611ee6565b604082019050919050565b60006020820190508181036000830152611f7181611f35565b9050919050565b7f74686973207265717565737420646f6573206e6f742065786973742100000000600082015250565b6000611fae601c83611ed5565b9150611fb982611f78565b602082019050919050565b60006020820190508181036000830152611fdd81611fa1565b9050919050565b7f74686973207265717565737420697320616c726561647920617070726f766564600082015250565b600061201a602083611ed5565b915061202582611fe4565b602082019050919050565b600060208201905081810360008301526120498161200d565b9050919050565b7f796f75206861766520616c726561647920617070726f7665642074686520726560008201527f7175657374000000000000000000000000000000000000000000000000000000602082015250565b60006120ac602583611ed5565b91506120b782612050565b604082019050919050565b600060208201905081810360008301526120db8161209f565b9050919050565b7f796f752063616e6e6f7420617070726f766520796f7572206f776e207265717560008201527f6573740000000000000000000000000000000000000000000000000000000000602082015250565b600061213e602383611ed5565b9150612149826120e2565b604082019050919050565b6000602082019050818103600083015261216d81612131565b9050919050565b600061217f8261196c565b915061218a8361196c565b92508282039050818111156121a2576121a1611e5e565b5b92915050565b60006060820190506121bd6000830186611b21565b6121ca6020830185611b21565b6121d76040830184611b21565b949350505050565b7f796f7520617265206e6f7420746865206f776e6572206f66207468697320726560008201527f7175657374000000000000000000000000000000000000000000000000000000602082015250565b600061223b602583611ed5565b9150612246826121df565b604082019050919050565b6000602082019050818103600083015261226a8161222e565b9050919050565b7f52657175657374206e6f7420617070726f766564207965740000000000000000600082015250565b60006122a7601883611ed5565b91506122b282612271565b602082019050919050565b600060208201905081810360008301526122d68161229a565b9050919050565b7f696e73756666696369656e742062616c616e6365000000000000000000000000600082015250565b6000612313601483611ed5565b915061231e826122dd565b602082019050919050565b6000602082019050818103600083015261234281612306565b9050919050565b600081905092915050565b50565b6000612364600083612349565b915061236f82612354565b600082019050919050565b600061238582612357565b9150819050919050565b60006040820190506123a46000830185611b21565b6123b16020830184611b21565b9392505050565b60006123c38261196c565b91506123ce8361196c565b92508282019050808211156123e6576123e5611e5e565b5b92915050565b7f6163636f756e742063616e27742068617665206d6f7265207468616e2034206f60008201527f776e657273000000000000000000000000000000000000000000000000000000602082015250565b6000612448602583611ed5565b9150612453826123ec565b604082019050919050565b600060208201905081810360008301526124778161243b565b9050919050565b7f6163636f756e742073686f756c642068617665206d696e696d756d206f66203260008201527f206f776e65727300000000000000000000000000000000000000000000000000602082015250565b60006124da602783611ed5565b91506124e58261247e565b604082019050919050565b60006020820190508181036000830152612509816124cd565b9050919050565b7f6e6f206475706c6963617465206f776e65727300000000000000000000000000600082015250565b6000612546601383611ed5565b915061255182612510565b602082019050919050565b6000602082019050818103600083015261257581612539565b9050919050565b7f6e6f206475706c6963617265206f776e65727300000000000000000000000000600082015250565b60006125b2601383611ed5565b91506125bd8261257c565b602082019050919050565b600060208201905081810360008301526125e1816125a5565b9050919050565b7f6561636820757365722063616e20686176652061206d6178206f66207468726560008201527f65206163636f756e747300000000000000000000000000000000000000000000602082015250565b6000612644602a83611ed5565b915061264f826125e8565b604082019050919050565b6000602082019050818103600083015261267381612637565b9050919050565b600060408201905081810360008301526126948185611a61565b90506126a36020830184611b21565b939250505056fea2646970667358221220573394cec1d9e0f06a268c0a600cee77b5d0bc3ad99708ec443943e456f4c4f164736f6c63430008120033",
  "linkReferences": {},
  "deployedLinkReferences": {}
}